{
  "_format": "hh-sol-artifact-1",
  "contractName": "Registry",
  "sourceName": "contracts/Registry.sol",
  "abi": [
    {
      "inputs": [
        {
          "internalType": "contract MinimalForwarder",
          "name": "forwarder",
          "type": "address"
        }
      ],
      "stateMutability": "nonpayable",
      "type": "constructor"
    },
    {
      "anonymous": false,
      "inputs": [
        {
          "indexed": true,
          "internalType": "address",
          "name": "who",
          "type": "address"
        },
        {
          "indexed": false,
          "internalType": "string",
          "name": "name",
          "type": "string"
        }
      ],
      "name": "Registered",
      "type": "event"
    },
    {
      "inputs": [
        {
          "internalType": "address",
          "name": "forwarder",
          "type": "address"
        }
      ],
      "name": "isTrustedForwarder",
      "outputs": [
        {
          "internalType": "bool",
          "name": "",
          "type": "bool"
        }
      ],
      "stateMutability": "view",
      "type": "function"
    },
    {
      "inputs": [
        {
          "internalType": "address",
          "name": "",
          "type": "address"
        }
      ],
      "name": "names",
      "outputs": [
        {
          "internalType": "string",
          "name": "",
          "type": "string"
        }
      ],
      "stateMutability": "view",
      "type": "function"
    },
    {
      "inputs": [
        {
          "internalType": "string",
          "name": "",
          "type": "string"
        }
      ],
      "name": "owners",
      "outputs": [
        {
          "internalType": "address",
          "name": "",
          "type": "address"
        }
      ],
      "stateMutability": "view",
      "type": "function"
    },
    {
      "inputs": [
        {
          "internalType": "string",
          "name": "name",
          "type": "string"
        }
      ],
      "name": "register",
      "outputs": [],
      "stateMutability": "nonpayable",
      "type": "function"
    }
  ],
  "bytecode": "0x60a060405234801561001057600080fd5b50604051610a32380380610a3283398181016040528101906100329190610086565b808073ffffffffffffffffffffffffffffffffffffffff1660808173ffffffffffffffffffffffffffffffffffffffff1660601b81525050505061010a565b600081519050610080816100f3565b92915050565b60006020828403121561009857600080fd5b60006100a684828501610071565b91505092915050565b60006100ba826100d3565b9050919050565b60006100cc826100af565b9050919050565b600073ffffffffffffffffffffffffffffffffffffffff82169050919050565b6100fc816100c1565b811461010757600080fd5b50565b60805160601c61090a610128600039600061014a015261090a6000f3fe608060405234801561001057600080fd5b506004361061004c5760003560e01c80632b1fd99514610051578063572b6c05146100815780635cf3d346146100b1578063f2c298be146100e1575b600080fd5b61006b6004803603810190610066919061057c565b6100fd565b604051610078919061069c565b60405180910390f35b61009b60048036038101906100969190610553565b610146565b6040516100a891906106b7565b60405180910390f35b6100cb60048036038101906100c69190610553565b61019e565b6040516100d891906106d2565b60405180910390f35b6100fb60048036038101906100f6919061057c565b61023e565b005b6001818051602081018201805184825260208301602085012081835280955050505050506000915054906101000a900473ffffffffffffffffffffffffffffffffffffffff1681565b60007f000000000000000000000000000000000000000000000000000000000000000073ffffffffffffffffffffffffffffffffffffffff168273ffffffffffffffffffffffffffffffffffffffff16149050919050565b600060205280600052604060002060009150905080546101bd9061081c565b80601f01602080910402602001604051908101604052809291908181526020018280546101e99061081c565b80156102365780601f1061020b57610100808354040283529160200191610236565b820191906000526020600020905b81548152906001019060200180831161021957829003601f168201915b505050505081565b600073ffffffffffffffffffffffffffffffffffffffff166001826040516102669190610685565b908152602001604051809103902060009054906101000a900473ffffffffffffffffffffffffffffffffffffffff1673ffffffffffffffffffffffffffffffffffffffff16146102eb576040517f08c379a00000000000000000000000000000000000000000000000000000000081526004016102e2906106f4565b60405180910390fd5b60006102f56103f9565b9050806001836040516103089190610685565b908152602001604051809103902060006101000a81548173ffffffffffffffffffffffffffffffffffffffff021916908373ffffffffffffffffffffffffffffffffffffffff160217905550816000808373ffffffffffffffffffffffffffffffffffffffff1673ffffffffffffffffffffffffffffffffffffffff16815260200190815260200160002090805190602001906103a6929190610433565b508073ffffffffffffffffffffffffffffffffffffffff167fb3eccf73f39b1c07947c780b2b39df2a1bb058b4037b0a42d0881ca1a028a132836040516103ed91906106d2565b60405180910390a25050565b600061040433610146565b1561041857601436033560601c9050610427565b61042061042b565b9050610428565b5b90565b600033905090565b82805461043f9061081c565b90600052602060002090601f01602090048101928261046157600085556104a8565b82601f1061047a57805160ff19168380011785556104a8565b828001600101855582156104a8579182015b828111156104a757825182559160200191906001019061048c565b5b5090506104b591906104b9565b5090565b5b808211156104d25760008160009055506001016104ba565b5090565b60006104e96104e484610745565b610714565b90508281526020810184848401111561050157600080fd5b61050c8482856107da565b509392505050565b600081359050610523816108bd565b92915050565b600082601f83011261053a57600080fd5b813561054a8482602086016104d6565b91505092915050565b60006020828403121561056557600080fd5b600061057384828501610514565b91505092915050565b60006020828403121561058e57600080fd5b600082013567ffffffffffffffff8111156105a857600080fd5b6105b484828501610529565b91505092915050565b6105c68161079c565b82525050565b6105d5816107ae565b82525050565b60006105e682610775565b6105f08185610780565b93506106008185602086016107e9565b610609816108ac565b840191505092915050565b600061061f82610775565b6106298185610791565b93506106398185602086016107e9565b80840191505092915050565b6000610652600a83610780565b91507f4e616d652074616b656e000000000000000000000000000000000000000000006000830152602082019050919050565b60006106918284610614565b915081905092915050565b60006020820190506106b160008301846105bd565b92915050565b60006020820190506106cc60008301846105cc565b92915050565b600060208201905081810360008301526106ec81846105db565b905092915050565b6000602082019050818103600083015261070d81610645565b9050919050565b6000604051905081810181811067ffffffffffffffff8211171561073b5761073a61087d565b5b8060405250919050565b600067ffffffffffffffff8211156107605761075f61087d565b5b601f19601f8301169050602081019050919050565b600081519050919050565b600082825260208201905092915050565b600081905092915050565b60006107a7826107ba565b9050919050565b60008115159050919050565b600073ffffffffffffffffffffffffffffffffffffffff82169050919050565b82818337600083830152505050565b60005b838110156108075780820151818401526020810190506107ec565b83811115610816576000848401525b50505050565b6000600282049050600182168061083457607f821691505b602082108114156108485761084761084e565b5b50919050565b7f4e487b7100000000000000000000000000000000000000000000000000000000600052602260045260246000fd5b7f4e487b7100000000000000000000000000000000000000000000000000000000600052604160045260246000fd5b6000601f19601f8301169050919050565b6108c68161079c565b81146108d157600080fd5b5056fea26469706673582212200b12d1fbfe331c30e06e9ad8182b890b15c4209217805d17dc1b1ee32ea8872b64736f6c63430008000033",
  "linkReferences": {},
  "deployedLinkReferences": {}
}